{
  "_format": "hh-sol-artifact-1",
  "contractName": "Sablier",
  "sourceName": "contracts/Sablier.sol",
  "abi": [
    {
      "constant": true,
      "inputs": [
        {
          "internalType": "address",
          "name": "tokenAddress",
          "type": "address"
        }
      ],
      "name": "getEarnings",
      "outputs": [
        {
          "internalType": "uint256",
          "name": "",
          "type": "uint256"
        }
      ],
      "payable": false,
      "stateMutability": "view",
      "type": "function"
    },
    {
      "constant": true,
      "inputs": [],
      "name": "nextStreamId",
      "outputs": [
        {
          "internalType": "uint256",
          "name": "",
          "type": "uint256"
        }
      ],
      "payable": false,
      "stateMutability": "view",
      "type": "function"
    },
    {
      "constant": true,
      "inputs": [
        {
          "internalType": "uint256",
          "name": "streamId",
          "type": "uint256"
        }
      ],
      "name": "getCompoundingStream",
      "outputs": [
        {
          "internalType": "address",
          "name": "sender",
          "type": "address"
        },
        {
          "internalType": "address",
          "name": "recipient",
          "type": "address"
        },
        {
          "internalType": "uint256",
          "name": "deposit",
          "type": "uint256"
        },
        {
          "internalType": "address",
          "name": "tokenAddress",
          "type": "address"
        },
        {
          "internalType": "uint256",
          "name": "startTime",
          "type": "uint256"
        },
        {
          "internalType": "uint256",
          "name": "stopTime",
          "type": "uint256"
        },
        {
          "internalType": "uint256",
          "name": "remainingBalance",
          "type": "uint256"
        },
        {
          "internalType": "uint256",
          "name": "ratePerSecond",
          "type": "uint256"
        },
        {
          "internalType": "uint256",
          "name": "exchangeRateInitial",
          "type": "uint256"
        },
        {
          "internalType": "uint256",
          "name": "senderSharePercentage",
          "type": "uint256"
        },
        {
          "internalType": "uint256",
          "name": "recipientSharePercentage",
          "type": "uint256"
        }
      ],
      "payable": false,
      "stateMutability": "view",
      "type": "function"
    },
    {
      "constant": true,
      "inputs": [
        {
          "internalType": "uint256",
          "name": "streamId",
          "type": "uint256"
        },
        {
          "internalType": "address",
          "name": "who",
          "type": "address"
        }
      ],
      "name": "balanceOf",
      "outputs": [
        {
          "internalType": "uint256",
          "name": "balance",
          "type": "uint256"
        }
      ],
      "payable": false,
      "stateMutability": "view",
      "type": "function"
    },
    {
      "constant": false,
      "inputs": [],
      "name": "unpause",
      "outputs": [],
      "payable": false,
      "stateMutability": "nonpayable",
      "type": "function"
    },
    {
      "constant": true,
      "inputs": [
        {
          "internalType": "address",
          "name": "account",
          "type": "address"
        }
      ],
      "name": "isPauser",
      "outputs": [
        {
          "internalType": "bool",
          "name": "",
          "type": "bool"
        }
      ],
      "payable": false,
      "stateMutability": "view",
      "type": "function"
    },
    {
      "constant": true,
      "inputs": [],
      "name": "paused",
      "outputs": [
        {
          "internalType": "bool",
          "name": "",
          "type": "bool"
        }
      ],
      "payable": false,
      "stateMutability": "view",
      "type": "function"
    },
    {
      "constant": false,
      "inputs": [
        {
          "internalType": "uint256",
          "name": "streamId",
          "type": "uint256"
        }
      ],
      "name": "cancelStream",
      "outputs": [
        {
          "internalType": "bool",
          "name": "",
          "type": "bool"
        }
      ],
      "payable": false,
      "stateMutability": "nonpayable",
      "type": "function"
    },
    {
      "constant": false,
      "inputs": [
        {
          "internalType": "uint256",
          "name": "streamId",
          "type": "uint256"
        },
        {
          "internalType": "uint256",
          "name": "amount",
          "type": "uint256"
        }
      ],
      "name": "withdrawFromStream",
      "outputs": [
        {
          "internalType": "bool",
          "name": "",
          "type": "bool"
        }
      ],
      "payable": false,
      "stateMutability": "nonpayable",
      "type": "function"
    },
    {
      "constant": false,
      "inputs": [],
      "name": "initialize",
      "outputs": [],
      "payable": false,
      "stateMutability": "nonpayable",
      "type": "function"
    },
    {
      "constant": false,
      "inputs": [
        {
          "internalType": "address",
          "name": "recipient",
          "type": "address"
        },
        {
          "internalType": "uint256",
          "name": "deposit",
          "type": "uint256"
        },
        {
          "internalType": "address",
          "name": "tokenAddress",
          "type": "address"
        },
        {
          "internalType": "uint256",
          "name": "startTime",
          "type": "uint256"
        },
        {
          "internalType": "uint256",
          "name": "stopTime",
          "type": "uint256"
        },
        {
          "internalType": "uint256",
          "name": "senderSharePercentage",
          "type": "uint256"
        },
        {
          "internalType": "uint256",
          "name": "recipientSharePercentage",
          "type": "uint256"
        }
      ],
      "name": "createCompoundingStream",
      "outputs": [
        {
          "internalType": "uint256",
          "name": "",
          "type": "uint256"
        }
      ],
      "payable": false,
      "stateMutability": "nonpayable",
      "type": "function"
    },
    {
      "constant": false,
      "inputs": [
        {
          "internalType": "address",
          "name": "account",
          "type": "address"
        }
      ],
      "name": "addPauser",
      "outputs": [],
      "payable": false,
      "stateMutability": "nonpayable",
      "type": "function"
    },
    {
      "constant": false,
      "inputs": [],
      "name": "pause",
      "outputs": [],
      "payable": false,
      "stateMutability": "nonpayable",
      "type": "function"
    },
    {
      "constant": true,
      "inputs": [
        {
          "internalType": "uint256",
          "name": "streamId",
          "type": "uint256"
        }
      ],
      "name": "getStream",
      "outputs": [
        {
          "internalType": "address",
          "name": "sender",
          "type": "address"
        },
        {
          "internalType": "address",
          "name": "recipient",
          "type": "address"
        },
        {
          "internalType": "uint256",
          "name": "deposit",
          "type": "uint256"
        },
        {
          "internalType": "address",
          "name": "tokenAddress",
          "type": "address"
        },
        {
          "internalType": "uint256",
          "name": "startTime",
          "type": "uint256"
        },
        {
          "internalType": "uint256",
          "name": "stopTime",
          "type": "uint256"
        },
        {
          "internalType": "uint256",
          "name": "remainingBalance",
          "type": "uint256"
        },
        {
          "internalType": "uint256",
          "name": "ratePerSecond",
          "type": "uint256"
        }
      ],
      "payable": false,
      "stateMutability": "view",
      "type": "function"
    },
    {
      "constant": false,
      "inputs": [
        {
          "internalType": "uint256",
          "name": "streamId",
          "type": "uint256"
        },
        {
          "internalType": "uint256",
          "name": "amount",
          "type": "uint256"
        }
      ],
      "name": "interestOf",
      "outputs": [
        {
          "internalType": "uint256",
          "name": "senderInterest",
          "type": "uint256"
        },
        {
          "internalType": "uint256",
          "name": "recipientInterest",
          "type": "uint256"
        },
        {
          "internalType": "uint256",
          "name": "sablierInterest",
          "type": "uint256"
        }
      ],
      "payable": false,
      "stateMutability": "nonpayable",
      "type": "function"
    },
    {
      "constant": true,
      "inputs": [],
      "name": "owner",
      "outputs": [
        {
          "internalType": "address",
          "name": "",
          "type": "address"
        }
      ],
      "payable": false,
      "stateMutability": "view",
      "type": "function"
    },
    {
      "constant": true,
      "inputs": [],
      "name": "isOwner",
      "outputs": [
        {
          "internalType": "bool",
          "name": "",
          "type": "bool"
        }
      ],
      "payable": false,
      "stateMutability": "view",
      "type": "function"
    },
    {
      "constant": false,
      "inputs": [
        {
          "internalType": "uint256",
          "name": "feePercentage",
          "type": "uint256"
        }
      ],
      "name": "updateFee",
      "outputs": [],
      "payable": false,
      "stateMutability": "nonpayable",
      "type": "function"
    },
    {
      "constant": true,
      "inputs": [
        {
          "internalType": "uint256",
          "name": "streamId",
          "type": "uint256"
        }
      ],
      "name": "isCompoundingStream",
      "outputs": [
        {
          "internalType": "bool",
          "name": "",
          "type": "bool"
        }
      ],
      "payable": false,
      "stateMutability": "view",
      "type": "function"
    },
    {
      "constant": true,
      "inputs": [
        {
          "internalType": "uint256",
          "name": "streamId",
          "type": "uint256"
        }
      ],
      "name": "deltaOf",
      "outputs": [
        {
          "internalType": "uint256",
          "name": "delta",
          "type": "uint256"
        }
      ],
      "payable": false,
      "stateMutability": "view",
      "type": "function"
    },
    {
      "constant": false,
      "inputs": [
        {
          "internalType": "address",
          "name": "tokenAddress",
          "type": "address"
        },
        {
          "internalType": "uint256",
          "name": "amount",
          "type": "uint256"
        }
      ],
      "name": "takeEarnings",
      "outputs": [],
      "payable": false,
      "stateMutability": "nonpayable",
      "type": "function"
    },
    {
      "constant": false,
      "inputs": [
        {
          "internalType": "address",
          "name": "sender",
          "type": "address"
        }
      ],
      "name": "initialize",
      "outputs": [],
      "payable": false,
      "stateMutability": "nonpayable",
      "type": "function"
    },
    {
      "constant": false,
      "inputs": [
        {
          "internalType": "address",
          "name": "recipient",
          "type": "address"
        },
        {
          "internalType": "uint256",
          "name": "deposit",
          "type": "uint256"
        },
        {
          "internalType": "address",
          "name": "tokenAddress",
          "type": "address"
        },
        {
          "internalType": "uint256",
          "name": "startTime",
          "type": "uint256"
        },
        {
          "internalType": "uint256",
          "name": "stopTime",
          "type": "uint256"
        }
      ],
      "name": "createStream",
      "outputs": [
        {
          "internalType": "uint256",
          "name": "",
          "type": "uint256"
        }
      ],
      "payable": false,
      "stateMutability": "nonpayable",
      "type": "function"
    },
    {
      "constant": true,
      "inputs": [],
      "name": "cTokenManager",
      "outputs": [
        {
          "internalType": "contract ICTokenManager",
          "name": "",
          "type": "address"
        }
      ],
      "payable": false,
      "stateMutability": "view",
      "type": "function"
    },
    {
      "constant": true,
      "inputs": [],
      "name": "fee",
      "outputs": [
        {
          "internalType": "uint256",
          "name": "mantissa",
          "type": "uint256"
        }
      ],
      "payable": false,
      "stateMutability": "view",
      "type": "function"
    },
    {
      "constant": false,
      "inputs": [
        {
          "internalType": "address",
          "name": "newOwner",
          "type": "address"
        }
      ],
      "name": "transferOwnership",
      "outputs": [],
      "payable": false,
      "stateMutability": "nonpayable",
      "type": "function"
    },
    {
      "inputs": [
        {
          "internalType": "address",
          "name": "cTokenManagerAddress",
          "type": "address"
        }
      ],
      "payable": false,
      "stateMutability": "nonpayable",
      "type": "constructor"
    },
    {
      "anonymous": false,
      "inputs": [
        {
          "indexed": true,
          "internalType": "uint256",
          "name": "streamId",
          "type": "uint256"
        },
        {
          "indexed": false,
          "internalType": "uint256",
          "name": "exchangeRate",
          "type": "uint256"
        },
        {
          "indexed": false,
          "internalType": "uint256",
          "name": "senderSharePercentage",
          "type": "uint256"
        },
        {
          "indexed": false,
          "internalType": "uint256",
          "name": "recipientSharePercentage",
          "type": "uint256"
        }
      ],
      "name": "CreateCompoundingStream",
      "type": "event"
    },
    {
      "anonymous": false,
      "inputs": [
        {
          "indexed": true,
          "internalType": "uint256",
          "name": "streamId",
          "type": "uint256"
        },
        {
          "indexed": false,
          "internalType": "uint256",
          "name": "senderInterest",
          "type": "uint256"
        },
        {
          "indexed": false,
          "internalType": "uint256",
          "name": "recipientInterest",
          "type": "uint256"
        },
        {
          "indexed": false,
          "internalType": "uint256",
          "name": "sablierInterest",
          "type": "uint256"
        }
      ],
      "name": "PayInterest",
      "type": "event"
    },
    {
      "anonymous": false,
      "inputs": [
        {
          "indexed": true,
          "internalType": "address",
          "name": "tokenAddress",
          "type": "address"
        },
        {
          "indexed": true,
          "internalType": "uint256",
          "name": "amount",
          "type": "uint256"
        }
      ],
      "name": "TakeEarnings",
      "type": "event"
    },
    {
      "anonymous": false,
      "inputs": [
        {
          "indexed": true,
          "internalType": "uint256",
          "name": "fee",
          "type": "uint256"
        }
      ],
      "name": "UpdateFee",
      "type": "event"
    },
    {
      "anonymous": false,
      "inputs": [
        {
          "indexed": false,
          "internalType": "address",
          "name": "account",
          "type": "address"
        }
      ],
      "name": "Paused",
      "type": "event"
    },
    {
      "anonymous": false,
      "inputs": [
        {
          "indexed": false,
          "internalType": "address",
          "name": "account",
          "type": "address"
        }
      ],
      "name": "Unpaused",
      "type": "event"
    },
    {
      "anonymous": false,
      "inputs": [
        {
          "indexed": true,
          "internalType": "address",
          "name": "account",
          "type": "address"
        }
      ],
      "name": "PauserAdded",
      "type": "event"
    },
    {
      "anonymous": false,
      "inputs": [
        {
          "indexed": true,
          "internalType": "address",
          "name": "account",
          "type": "address"
        }
      ],
      "name": "PauserRemoved",
      "type": "event"
    },
    {
      "anonymous": false,
      "inputs": [
        {
          "indexed": true,
          "internalType": "address",
          "name": "previousOwner",
          "type": "address"
        },
        {
          "indexed": true,
          "internalType": "address",
          "name": "newOwner",
          "type": "address"
        }
      ],
      "name": "OwnershipTransferred",
      "type": "event"
    },
    {
      "anonymous": false,
      "inputs": [
        {
          "indexed": true,
          "internalType": "uint256",
          "name": "streamId",
          "type": "uint256"
        },
        {
          "indexed": true,
          "internalType": "address",
          "name": "sender",
          "type": "address"
        },
        {
          "indexed": true,
          "internalType": "address",
          "name": "recipient",
          "type": "address"
        },
        {
          "indexed": false,
          "internalType": "uint256",
          "name": "deposit",
          "type": "uint256"
        },
        {
          "indexed": false,
          "internalType": "address",
          "name": "tokenAddress",
          "type": "address"
        },
        {
          "indexed": false,
          "internalType": "uint256",
          "name": "startTime",
          "type": "uint256"
        },
        {
          "indexed": false,
          "internalType": "uint256",
          "name": "stopTime",
          "type": "uint256"
        }
      ],
      "name": "CreateStream",
      "type": "event"
    },
    {
      "anonymous": false,
      "inputs": [
        {
          "indexed": true,
          "internalType": "uint256",
          "name": "streamId",
          "type": "uint256"
        },
        {
          "indexed": true,
          "internalType": "address",
          "name": "recipient",
          "type": "address"
        },
        {
          "indexed": false,
          "internalType": "uint256",
          "name": "amount",
          "type": "uint256"
        }
      ],
      "name": "WithdrawFromStream",
      "type": "event"
    },
    {
      "anonymous": false,
      "inputs": [
        {
          "indexed": true,
          "internalType": "uint256",
          "name": "streamId",
          "type": "uint256"
        },
        {
          "indexed": true,
          "internalType": "address",
          "name": "sender",
          "type": "address"
        },
        {
          "indexed": true,
          "internalType": "address",
          "name": "recipient",
          "type": "address"
        },
        {
          "indexed": false,
          "internalType": "uint256",
          "name": "senderBalance",
          "type": "uint256"
        },
        {
          "indexed": false,
          "internalType": "uint256",
          "name": "recipientBalance",
          "type": "uint256"
        }
      ],
      "name": "CancelStream",
      "type": "event"
    }
  ],
  "bytecode": "0x60806040523480156200001157600080fd5b50604051620078e0380380620078e0833981810160405260208110156200003757600080fd5b8101908080519060200190929190505050600073ffffffffffffffffffffffffffffffffffffffff168173ffffffffffffffffffffffffffffffffffffffff161415620000d0576040517f08c379a000000000000000000000000000000000000000000000000000000000815260040180806020018281038252602a815260200180620078b6602a913960400191505060405180910390fd5b620000e6336200014c60201b62006c271760201c565b620000fc336200031860201b620039be1760201c565b8060ce60006101000a81548173ffffffffffffffffffffffffffffffffffffffff021916908373ffffffffffffffffffffffffffffffffffffffff160217905550600160d1819055505062000772565b600060019054906101000a900460ff1680620001745750620001736200045760201b60201c565b5b806200018c57506000809054906101000a900460ff16155b620001e3576040517f08c379a000000000000000000000000000000000000000000000000000000000815260040180806020018281038252602e81526020018062007888602e913960400191505060405180910390fd5b60008060019054906101000a900460ff16159050801562000234576001600060016101000a81548160ff02191690831515021790555060016000806101000a81548160ff0219169083151502179055505b81603360006101000a81548173ffffffffffffffffffffffffffffffffffffffff021916908373ffffffffffffffffffffffffffffffffffffffff160217905550603360009054906101000a900473ffffffffffffffffffffffffffffffffffffffff1673ffffffffffffffffffffffffffffffffffffffff16600073ffffffffffffffffffffffffffffffffffffffff167f8be0079c531659141344cd1fd0a4f28419497f9722a3daafe3b4186f6b6457e060405160405180910390a38015620003145760008060016101000a81548160ff0219169083151502179055505b5050565b600060019054906101000a900460ff16806200034057506200033f6200045760201b60201c565b5b806200035857506000809054906101000a900460ff16155b620003af576040517f08c379a000000000000000000000000000000000000000000000000000000000815260040180806020018281038252602e81526020018062007888602e913960400191505060405180910390fd5b60008060019054906101000a900460ff16159050801562000400576001600060016101000a81548160ff02191690831515021790555060016000806101000a81548160ff0219169083151502179055505b62000416826200046e60201b620065831760201c565b6000609960006101000a81548160ff0219169083151502179055508015620004535760008060016101000a81548160ff0219169083151502179055505b5050565b6000803090506000813b9050600081149250505090565b600060019054906101000a900460ff1680620004965750620004956200045760201b60201c565b5b80620004ae57506000809054906101000a900460ff16155b62000505576040517f08c379a000000000000000000000000000000000000000000000000000000000815260040180806020018281038252602e81526020018062007888602e913960400191505060405180910390fd5b60008060019054906101000a900460ff16159050801562000556576001600060016101000a81548160ff02191690831515021790555060016000806101000a81548160ff0219169083151502179055505b6200056782620005a460201b60201c565b6200057e576200057d82620005c860201b60201c565b5b8015620005a05760008060016101000a81548160ff0219169083151502179055505b5050565b6000620005c18260666200062960201b620045b31790919060201c565b9050919050565b620005e3816066620006bc60201b620067c81790919060201c565b8073ffffffffffffffffffffffffffffffffffffffff167f6719d08c1888103bea251a4ed56406bd0c3e69723c8a1686e017e7bbe159b6f860405160405180910390a250565b60008073ffffffffffffffffffffffffffffffffffffffff168273ffffffffffffffffffffffffffffffffffffffff1614156200066557600080fd5b8260000160008373ffffffffffffffffffffffffffffffffffffffff1673ffffffffffffffffffffffffffffffffffffffff16815260200190815260200160002060009054906101000a900460ff16905092915050565b600073ffffffffffffffffffffffffffffffffffffffff168173ffffffffffffffffffffffffffffffffffffffff161415620006f757600080fd5b6200070982826200062960201b60201c565b156200071457600080fd5b60018260000160008373ffffffffffffffffffffffffffffffffffffffff1673ffffffffffffffffffffffffffffffffffffffff16815260200190815260200160002060006101000a81548160ff0219169083151502179055505050565b61710680620007826000396000f3fe608060405234801561001057600080fd5b506004361061018e5760003560e01c8063894e9a0d116100de578063a82ccd4d11610097578063cc1b4bf611610071578063cc1b4bf61461089c578063d2cba55c14610932578063ddca3f431461097c578063f2fde38b1461099a5761018e565b8063a82ccd4d146107c8578063c1eb9ee01461080a578063c4d66de8146108585761018e565b8063894e9a0d146105975780638c9a32521461068e5780638da5cb5b146106e85780638f32d59b146107325780639012c4a814610754578063a734d51b146107825761018e565b80635c975abb1161014b5780638129fc1c116101255780638129fc1c146104955780638195aeaa1461049f57806382dc1ec4146105495780638456cb591461058d5761018e565b80635c975abb146103dd5780636db9241b146103ff5780637a9b2c6c146104455761018e565b8063131b9c04146101935780631e99d569146101eb5780632b8a119d146102095780633656eec2146103155780633f4ba83a1461037757806346fbf68e14610381575b600080fd5b6101d5600480360360208110156101a957600080fd5b81019080803573ffffffffffffffffffffffffffffffffffffffff1690602001909291905050506109de565b6040518082815260200191505060405180910390f35b6101f3610b73565b6040518082815260200191505060405180910390f35b6102356004803603602081101561021f57600080fd5b8101908080359060200190929190505050610b79565b604051808c73ffffffffffffffffffffffffffffffffffffffff1673ffffffffffffffffffffffffffffffffffffffff1681526020018b73ffffffffffffffffffffffffffffffffffffffff1673ffffffffffffffffffffffffffffffffffffffff1681526020018a81526020018973ffffffffffffffffffffffffffffffffffffffff1673ffffffffffffffffffffffffffffffffffffffff1681526020018881526020018781526020018681526020018581526020018481526020018381526020018281526020019b50505050505050505050505060405180910390f35b6103616004803603604081101561032b57600080fd5b8101908080359060200190929190803573ffffffffffffffffffffffffffffffffffffffff169060200190929190505050610e28565b6040518082815260200191505060405180910390f35b61037f6112bf565b005b6103c36004803603602081101561039757600080fd5b81019080803573ffffffffffffffffffffffffffffffffffffffff16906020019092919050505061142d565b604051808215151515815260200191505060405180910390f35b6103e561144a565b604051808215151515815260200191505060405180910390f35b61042b6004803603602081101561041557600080fd5b8101908080359060200190929190505050611461565b604051808215151515815260200191505060405180910390f35b61047b6004803603604081101561045b57600080fd5b810190808035906020019092919080359060200190929190505050611693565b604051808215151515815260200191505060405180910390f35b61049d611ba6565b005b610533600480360360e08110156104b557600080fd5b81019080803573ffffffffffffffffffffffffffffffffffffffff16906020019092919080359060200190929190803573ffffffffffffffffffffffffffffffffffffffff16906020019092919080359060200190929190803590602001909291908035906020019092919080359060200190929190505050611cad565b6040518082815260200191505060405180910390f35b61058b6004803603602081101561055f57600080fd5b81019080803573ffffffffffffffffffffffffffffffffffffffff169060200190929190505050612238565b005b6105956122a9565b005b6105c3600480360360208110156105ad57600080fd5b8101908080359060200190929190505050612418565b604051808973ffffffffffffffffffffffffffffffffffffffff1673ffffffffffffffffffffffffffffffffffffffff1681526020018873ffffffffffffffffffffffffffffffffffffffff1673ffffffffffffffffffffffffffffffffffffffff1681526020018781526020018673ffffffffffffffffffffffffffffffffffffffff1673ffffffffffffffffffffffffffffffffffffffff1681526020018581526020018481526020018381526020018281526020019850505050505050505060405180910390f35b6106c4600480360360408110156106a457600080fd5b8101908080359060200190929190803590602001909291905050506125ef565b60405180848152602001838152602001828152602001935050505060405180910390f35b6106f0613088565b604051808273ffffffffffffffffffffffffffffffffffffffff1673ffffffffffffffffffffffffffffffffffffffff16815260200191505060405180910390f35b61073a6130b2565b604051808215151515815260200191505060405180910390f35b6107806004803603602081101561076a57600080fd5b8101908080359060200190929190505050613111565b005b6107ae6004803603602081101561079857600080fd5b8101908080359060200190929190505050613251565b604051808215151515815260200191505060405180910390f35b6107f4600480360360208110156107de57600080fd5b810190808035906020019092919050505061327e565b6040518082815260200191505060405180910390f35b6108566004803603604081101561082057600080fd5b81019080803573ffffffffffffffffffffffffffffffffffffffff169060200190929190803590602001909291905050506134d4565b005b61089a6004803603602081101561086e57600080fd5b81019080803573ffffffffffffffffffffffffffffffffffffffff1690602001909291905050506139be565b005b61091c600480360360a08110156108b257600080fd5b81019080803573ffffffffffffffffffffffffffffffffffffffff16906020019092919080359060200190929190803573ffffffffffffffffffffffffffffffffffffffff1690602001909291908035906020019092919080359060200190929190505050613ae2565b6040518082815260200191505060405180910390f35b61093a6144de565b604051808273ffffffffffffffffffffffffffffffffffffffff1673ffffffffffffffffffffffffffffffffffffffff16815260200191505060405180910390f35b610984614504565b6040518082815260200191505060405180910390f35b6109dc600480360360208110156109b057600080fd5b81019080803573ffffffffffffffffffffffffffffffffffffffff169060200190929190505050614510565b005b600060ce60009054906101000a900473ffffffffffffffffffffffffffffffffffffffff1673ffffffffffffffffffffffffffffffffffffffff16632f52e595836040518263ffffffff1660e01b8152600401808273ffffffffffffffffffffffffffffffffffffffff1673ffffffffffffffffffffffffffffffffffffffff16815260200191505060206040518083038186803b158015610a7f57600080fd5b505afa158015610a93573d6000803e3d6000fd5b505050506040513d6020811015610aa957600080fd5b8101908080519060200190929190505050610b2c576040517f08c379a00000000000000000000000000000000000000000000000000000000081526004018080602001828103825260138152602001807f746f6b656e206973206e6f742063546f6b656e0000000000000000000000000081525060200191505060405180910390fd5b60cf60008373ffffffffffffffffffffffffffffffffffffffff1673ffffffffffffffffffffffffffffffffffffffff168152602001908152602001600020549050919050565b60d15481565b60008060008060008060008060008060008b60d2600082815260200190815260200160002060070160149054906101000a900460ff16610c21576040517f08c379a00000000000000000000000000000000000000000000000000000000081526004018080602001828103825260158152602001807f73747265616d20646f6573206e6f74206578697374000000000000000000000081525060200191505060405180910390fd5b8c60cd600082815260200190815260200160002060030160009054906101000a900460ff16610c9b576040517f08c379a0000000000000000000000000000000000000000000000000000000008152600401808060200182810382526021815260200180616de66021913960400191505060405180910390fd5b60d260008f815260200190815260200160002060060160009054906101000a900473ffffffffffffffffffffffffffffffffffffffff169c5060d260008f815260200190815260200160002060050160009054906101000a900473ffffffffffffffffffffffffffffffffffffffff169b5060d260008f8152602001908152602001600020600001549a5060d260008f815260200190815260200160002060070160009054906101000a900473ffffffffffffffffffffffffffffffffffffffff16995060d260008f815260200190815260200160002060030154985060d260008f815260200190815260200160002060040154975060d260008f815260200190815260200160002060020154965060d260008f815260200190815260200160002060010154955060cd60008f815260200190815260200160002060000160000154945060cd60008f815260200190815260200160002060010160000154935060cd60008f8152602001908152602001600020600201600001549250505091939597999b90929496989a50565b60008260d2600082815260200190815260200160002060070160149054906101000a900460ff16610ec1576040517f08c379a00000000000000000000000000000000000000000000000000000000081526004018080602001828103825260158152602001807f73747265616d20646f6573206e6f74206578697374000000000000000000000081525060200191505060405180910390fd5b610ec9616948565b60d260008681526020019081526020016000206040518061012001604052908160008201548152602001600182015481526020016002820154815260200160038201548152602001600482015481526020016005820160009054906101000a900473ffffffffffffffffffffffffffffffffffffffff1673ffffffffffffffffffffffffffffffffffffffff1673ffffffffffffffffffffffffffffffffffffffff1681526020016006820160009054906101000a900473ffffffffffffffffffffffffffffffffffffffff1673ffffffffffffffffffffffffffffffffffffffff1673ffffffffffffffffffffffffffffffffffffffff1681526020016007820160009054906101000a900473ffffffffffffffffffffffffffffffffffffffff1673ffffffffffffffffffffffffffffffffffffffff1673ffffffffffffffffffffffffffffffffffffffff1681526020016007820160149054906101000a900460ff16151515158152505090506110416169d8565b600061104c8761327e565b905061105c81846020015161452d565b83600001846020018281525082600381111561107457fe5b600381111561107f57fe5b81525050506000600381111561109157fe5b826000015160038111156110a157fe5b146110f7576040517f08c379a00000000000000000000000000000000000000000000000000000000081526004018080602001828103825260238152602001806170786023913960400191505060405180910390fd5b8260400151836000015111156111c45761111983600001518460400151614580565b83600001846040018281525082600381111561113157fe5b600381111561113c57fe5b81525050506000600381111561114e57fe5b8260000151600381111561115e57fe5b1461116557fe5b61117782602001518360400151614580565b83600001846020018281525082600381111561118f57fe5b600381111561119a57fe5b8152505050600060038111156111ac57fe5b826000015160038111156111bc57fe5b146111c357fe5b5b8260a0015173ffffffffffffffffffffffffffffffffffffffff168673ffffffffffffffffffffffffffffffffffffffff16141561120b57816020015194505050506112b8565b8260c0015173ffffffffffffffffffffffffffffffffffffffff168673ffffffffffffffffffffffffffffffffffffffff1614156112b05761125583604001518360200151614580565b83600001846060018281525082600381111561126d57fe5b600381111561127857fe5b81525050506000600381111561128a57fe5b8260000151600381111561129a57fe5b146112a157fe5b816060015194505050506112b8565b600094505050505b5092915050565b6112cf6112ca6145ab565b61142d565b611324576040517f08c379a0000000000000000000000000000000000000000000000000000000008152600401808060200182810382526030815260200180616e2a6030913960400191505060405180910390fd5b609960009054906101000a900460ff166113a6576040517f08c379a00000000000000000000000000000000000000000000000000000000081526004018080602001828103825260148152602001807f5061757361626c653a206e6f742070617573656400000000000000000000000081525060200191505060405180910390fd5b6000609960006101000a81548160ff0219169083151502179055507f5db9ee0a495bf2e6ff9c91a7834c1ba4fdd244a5e8aa4e537bd38aeae4b073aa6113ea6145ab565b604051808273ffffffffffffffffffffffffffffffffffffffff1673ffffffffffffffffffffffffffffffffffffffff16815260200191505060405180910390a1565b60006114438260666145b390919063ffffffff16565b9050919050565b6000609960009054906101000a900460ff16905090565b60006001609a600082825401925050819055506000609a5490508260d2600082815260200190815260200160002060070160149054906101000a900460ff16611512576040517f08c379a00000000000000000000000000000000000000000000000000000000081526004018080602001828103825260158152602001807f73747265616d20646f6573206e6f74206578697374000000000000000000000081525060200191505060405180910390fd5b8360d2600082815260200190815260200160002060060160009054906101000a900473ffffffffffffffffffffffffffffffffffffffff1673ffffffffffffffffffffffffffffffffffffffff163373ffffffffffffffffffffffffffffffffffffffff1614806115e4575060d2600082815260200190815260200160002060050160009054906101000a900473ffffffffffffffffffffffffffffffffffffffff1673ffffffffffffffffffffffffffffffffffffffff163373ffffffffffffffffffffffffffffffffffffffff16145b611639576040517f08c379a000000000000000000000000000000000000000000000000000000000815260040180806020018281038252603781526020018061709b6037913960400191505060405180910390fd5b60cd600086815260200190815260200160002060030160009054906101000a900460ff1661166f5761166a85614645565b611679565b61167885614bb2565b5b600193505050609a54811461168d57600080fd5b50919050565b6000609960009054906101000a900460ff1615611718576040517f08c379a00000000000000000000000000000000000000000000000000000000081526004018080602001828103825260108152602001807f5061757361626c653a207061757365640000000000000000000000000000000081525060200191505060405180910390fd5b6001609a600082825401925050819055506000609a5490508360d2600082815260200190815260200160002060070160149054906101000a900460ff166117c7576040517f08c379a00000000000000000000000000000000000000000000000000000000081526004018080602001828103825260158152602001807f73747265616d20646f6573206e6f74206578697374000000000000000000000081525060200191505060405180910390fd5b8460d2600082815260200190815260200160002060060160009054906101000a900473ffffffffffffffffffffffffffffffffffffffff1673ffffffffffffffffffffffffffffffffffffffff163373ffffffffffffffffffffffffffffffffffffffff161480611899575060d2600082815260200190815260200160002060050160009054906101000a900473ffffffffffffffffffffffffffffffffffffffff1673ffffffffffffffffffffffffffffffffffffffff163373ffffffffffffffffffffffffffffffffffffffff16145b6118ee576040517f08c379a000000000000000000000000000000000000000000000000000000000815260040180806020018281038252603781526020018061709b6037913960400191505060405180910390fd5b60008511611964576040517f08c379a000000000000000000000000000000000000000000000000000000000815260040180806020018281038252600e8152602001807f616d6f756e74206973207a65726f00000000000000000000000000000000000081525060200191505060405180910390fd5b61196c616948565b60d260008881526020019081526020016000206040518061012001604052908160008201548152602001600182015481526020016002820154815260200160038201548152602001600482015481526020016005820160009054906101000a900473ffffffffffffffffffffffffffffffffffffffff1673ffffffffffffffffffffffffffffffffffffffff1673ffffffffffffffffffffffffffffffffffffffff1681526020016006820160009054906101000a900473ffffffffffffffffffffffffffffffffffffffff1673ffffffffffffffffffffffffffffffffffffffff1673ffffffffffffffffffffffffffffffffffffffff1681526020016007820160009054906101000a900473ffffffffffffffffffffffffffffffffffffffff1673ffffffffffffffffffffffffffffffffffffffff1673ffffffffffffffffffffffffffffffffffffffff1681526020016007820160149054906101000a900460ff16151515158152505090506000611aec888360a00151610e28565b905086811015611b47576040517f08c379a0000000000000000000000000000000000000000000000000000000008152600401808060200182810382526024815260200180616e816024913960400191505060405180910390fd5b60cd600089815260200190815260200160002060030160009054906101000a900460ff16611b7e57611b798888615514565b611b89565b611b88888861597f565b5b6001955050505050609a548114611b9f57600080fd5b5092915050565b600060019054906101000a900460ff1680611bc55750611bc46162b8565b5b80611bdc57506000809054906101000a900460ff16155b611c31576040517f08c379a000000000000000000000000000000000000000000000000000000000815260040180806020018281038252602e815260200180617005602e913960400191505060405180910390fd5b60008060019054906101000a900460ff161590508015611c81576001600060016101000a81548160ff02191690831515021790555060016000806101000a81548160ff0219169083151502179055505b6001609a819055508015611caa5760008060016101000a81548160ff0219169083151502179055505b50565b6000609960009054906101000a900460ff1615611d32576040517f08c379a00000000000000000000000000000000000000000000000000000000081526004018080602001828103825260108152602001807f5061757361626c653a207061757365640000000000000000000000000000000081525060200191505060405180910390fd5b60ce60009054906101000a900473ffffffffffffffffffffffffffffffffffffffff1673ffffffffffffffffffffffffffffffffffffffff16632f52e595876040518263ffffffff1660e01b8152600401808273ffffffffffffffffffffffffffffffffffffffff1673ffffffffffffffffffffffffffffffffffffffff16815260200191505060206040518083038186803b158015611dd157600080fd5b505afa158015611de5573d6000803e3d6000fd5b505050506040513d6020811015611dfb57600080fd5b8101908080519060200190929190505050611e7e576040517f08c379a00000000000000000000000000000000000000000000000000000000081526004018080602001828103825260198152602001807f63546f6b656e206973206e6f742077686974656c69737465640000000000000081525060200191505060405180910390fd5b611e86616a0b565b611e9084846162cf565b826000018360200182815250826003811115611ea857fe5b6003811115611eb357fe5b815250505060006003811115611ec557fe5b81600001516003811115611ed557fe5b14611f48576040517f08c379a000000000000000000000000000000000000000000000000000000000815260040180806020018281038252601b8152602001807f73686172652073756d2063616c63756c6174696f6e206572726f72000000000081525060200191505060405180910390fd5b6064816020015114611fc2576040517f08c379a000000000000000000000000000000000000000000000000000000000815260040180806020018281038252601b8152602001807f73686172657320646f206e6f742073756d20757020746f20313030000000000081525060200191505060405180910390fd5b6000611fd18a8a8a8a8a613ae2565b9050611fe485662386f26fc1000061452d565b836000018460600182815250826003811115611ffc57fe5b600381111561200757fe5b81525050506000600381111561201957fe5b8260000151600381111561202957fe5b1461203057fe5b61204184662386f26fc1000061452d565b83600001846080018281525082600381111561205957fe5b600381111561206457fe5b81525050506000600381111561207657fe5b8260000151600381111561208657fe5b1461208d57fe5b60008873ffffffffffffffffffffffffffffffffffffffff1663bd6d894d6040518163ffffffff1660e01b8152600401602060405180830381600087803b1580156120d757600080fd5b505af11580156120eb573d6000803e3d6000fd5b505050506040513d602081101561210157600080fd5b81019080805190602001909291905050509050604051806080016040528060405180602001604052808481525081526020016040518060200160405280866060015181525081526020016040518060200160405280866080015181525081526020016001151581525060cd600084815260200190815260200160002060008201518160000160008201518160000155505060208201518160010160008201518160000155505060408201518160020160008201518160000155505060608201518160030160006101000a81548160ff021916908315150217905550905050817fa9bbfc8562a8e1e6b889a428f128c90ed60c6204c37e4fb4354a202b4db5920482888860405180848152602001838152602001828152602001935050505060405180910390a2819350505050979650505050505050565b6122486122436145ab565b61142d565b61229d576040517f08c379a0000000000000000000000000000000000000000000000000000000008152600401808060200182810382526030815260200180616e2a6030913960400191505060405180910390fd5b6122a681616301565b50565b6122b96122b46145ab565b61142d565b61230e576040517f08c379a0000000000000000000000000000000000000000000000000000000008152600401808060200182810382526030815260200180616e2a6030913960400191505060405180910390fd5b609960009054906101000a900460ff1615612391576040517f08c379a00000000000000000000000000000000000000000000000000000000081526004018080602001828103825260108152602001807f5061757361626c653a207061757365640000000000000000000000000000000081525060200191505060405180910390fd5b6001609960006101000a81548160ff0219169083151502179055507f62e78cea01bee320cd4e420270b5ea74000d11b0c9f74754ebdbfc544b05a2586123d56145ab565b604051808273ffffffffffffffffffffffffffffffffffffffff1673ffffffffffffffffffffffffffffffffffffffff16815260200191505060405180910390a1565b6000806000806000806000808860d2600082815260200190815260200160002060070160149054906101000a900460ff166124bb576040517f08c379a00000000000000000000000000000000000000000000000000000000081526004018080602001828103825260158152602001807f73747265616d20646f6573206e6f74206578697374000000000000000000000081525060200191505060405180910390fd5b60d260008b815260200190815260200160002060060160009054906101000a900473ffffffffffffffffffffffffffffffffffffffff16985060d260008b815260200190815260200160002060050160009054906101000a900473ffffffffffffffffffffffffffffffffffffffff16975060d260008b815260200190815260200160002060000154965060d260008b815260200190815260200160002060070160009054906101000a900473ffffffffffffffffffffffffffffffffffffffff16955060d260008b815260200190815260200160002060030154945060d260008b815260200190815260200160002060040154935060d260008b815260200190815260200160002060020154925060d260008b815260200190815260200160002060010154915050919395975091939597565b60008060008460d2600082815260200190815260200160002060070160149054906101000a900460ff1661268b576040517f08c379a00000000000000000000000000000000000000000000000000000000081526004018080602001828103825260158152602001807f73747265616d20646f6573206e6f74206578697374000000000000000000000081525060200191505060405180910390fd5b60cd600087815260200190815260200160002060030160009054906101000a900460ff166126cc576000806000829250819150809050935093509350613080565b6126d4616948565b60d260008881526020019081526020016000206040518061012001604052908160008201548152602001600182015481526020016002820154815260200160038201548152602001600482015481526020016005820160009054906101000a900473ffffffffffffffffffffffffffffffffffffffff1673ffffffffffffffffffffffffffffffffffffffff1673ffffffffffffffffffffffffffffffffffffffff1681526020016006820160009054906101000a900473ffffffffffffffffffffffffffffffffffffffff1673ffffffffffffffffffffffffffffffffffffffff1673ffffffffffffffffffffffffffffffffffffffff1681526020016007820160009054906101000a900473ffffffffffffffffffffffffffffffffffffffff1673ffffffffffffffffffffffffffffffffffffffff1673ffffffffffffffffffffffffffffffffffffffff1681526020016007820160149054906101000a900460ff161515151581525050905061284c616a45565b60cd60008981526020019081526020016000206040518060800160405290816000820160405180602001604052908160008201548152505081526020016001820160405180602001604052908160008201548152505081526020016002820160405180602001604052908160008201548152505081526020016003820160009054906101000a900460ff16151515158152505090506128e9616a81565b6128f1616b15565b60405180602001604052808560e0015173ffffffffffffffffffffffffffffffffffffffff1663bd6d894d6040518163ffffffff1660e01b8152600401602060405180830381600087803b15801561294857600080fd5b505af115801561295c573d6000803e3d6000fd5b505050506040513d602081101561297257600080fd5b810190808051906020019092919050505081525090508260000151600001518160000151116129b857600080600082925081915080905097509750975050505050613080565b6129c681846000015161635b565b80905083600001846020018290528260038111156129e057fe5b60038111156129eb57fe5b8152505050600060038111156129fd57fe5b82600001516003811115612a0d57fe5b14612a1457fe5b612a2282602001518a61639e565b8090508360000184604001829052826003811115612a3c57fe5b6003811115612a4757fe5b815250505060006003811115612a5957fe5b82600001516003811115612a6957fe5b14612adc576040517f08c379a000000000000000000000000000000000000000000000000000000000815260040180806020018281038252601a8152602001807f696e7465726573742063616c63756c6174696f6e206572726f7200000000000081525060200191505060405180910390fd5b670de0b6b3a764000060d0600001541415612bc357612aff82604001518261641c565b809050836000018461012001829052826003811115612b1a57fe5b6003811115612b2557fe5b815250505060006003811115612b3757fe5b82600001516003811115612b4757fe5b14612b9d576040517f08c379a00000000000000000000000000000000000000000000000000000000081526004018080602001828103825260218152602001806170576021913960400191505060405180910390fd5b600080612bae846101200151616443565b82925081915097509750975050505050613080565b600060d0600001541415612bfb57604051806020016040528060008152508260c0018190525081604001518260600181905250612d1d565b612c1f826040015160d0604051806020016040529081600082015481525050616462565b809050836000018460c001829052826003811115612c3957fe5b6003811115612c4457fe5b815250505060006003811115612c5657fe5b82600001516003811115612c6657fe5b14612cbc576040517f08c379a0000000000000000000000000000000000000000000000000000000008152600401808060200182810382526022815260200180616f0c6022913960400191505060405180910390fd5b612cce82604001518360c0015161635b565b8090508360000184606001829052826003811115612ce857fe5b6003811115612cf357fe5b815250505060006003811115612d0557fe5b82600001516003811115612d1557fe5b14612d1c57fe5b5b612d2f82606001518460200151616462565b8090508360000184608001829052826003811115612d4957fe5b6003811115612d5457fe5b815250505060006003811115612d6657fe5b82600001516003811115612d7657fe5b14612dcc576040517f08c379a0000000000000000000000000000000000000000000000000000000008152600401808060200182810382526021815260200180616eca6021913960400191505060405180910390fd5b612dde8260600151836080015161635b565b809050836000018460a001829052826003811115612df857fe5b6003811115612e0357fe5b815250505060006003811115612e1557fe5b82600001516003811115612e2557fe5b14612e2c57fe5b612e3a82608001518261641c565b809050836000018460e001829052826003811115612e5457fe5b6003811115612e5f57fe5b815250505060006003811115612e7157fe5b82600001516003811115612e8157fe5b14612ef4576040517f08c379a00000000000000000000000000000000000000000000000000000000081526004018080602001828103825260208152602001807f73656e64657220696e74657265737420636f6e76657273696f6e206572726f7281525060200191505060405180910390fd5b612f028260a001518261641c565b809050836000018461010001829052826003811115612f1d57fe5b6003811115612f2857fe5b815250505060006003811115612f3a57fe5b82600001516003811115612f4a57fe5b14612fa0576040517f08c379a0000000000000000000000000000000000000000000000000000000008152600401808060200182810382526023815260200180616f806023913960400191505060405180910390fd5b612fae8260c001518261641c565b809050836000018461012001829052826003811115612fc957fe5b6003811115612fd457fe5b815250505060006003811115612fe657fe5b82600001516003811115612ff657fe5b1461304c576040517f08c379a00000000000000000000000000000000000000000000000000000000081526004018080602001828103825260218152602001806170576021913960400191505060405180910390fd5b6130598260e00151616443565b613067836101000151616443565b613075846101200151616443565b975097509750505050505b509250925092565b6000603360009054906101000a900473ffffffffffffffffffffffffffffffffffffffff16905090565b6000603360009054906101000a900473ffffffffffffffffffffffffffffffffffffffff1673ffffffffffffffffffffffffffffffffffffffff166130f56145ab565b73ffffffffffffffffffffffffffffffffffffffff1614905090565b6131196130b2565b61312257600080fd5b6064811115613199576040517f08c379a000000000000000000000000000000000000000000000000000000000815260040180806020018281038252601f8152602001807f6665652070657263656e7461676520686967686572207468616e20313030250081525060200191505060405180910390fd5b6131a1616b28565b6131b282662386f26fc1000061452d565b8260000183602001828152508260038111156131ca57fe5b60038111156131d557fe5b8152505050600060038111156131e757fe5b816000015160038111156131f757fe5b146131fe57fe5b6040518060200160405280826020015181525060d060008201518160000155905050817f38e229a7f3f9c329892d08eb37c4e91ccac6d12c798d394990ca4f56028ec26660405160405180910390a25050565b600060cd600083815260200190815260200160002060030160009054906101000a900460ff169050919050565b60008160d2600082815260200190815260200160002060070160149054906101000a900460ff16613317576040517f08c379a00000000000000000000000000000000000000000000000000000000081526004018080602001828103825260158152602001807f73747265616d20646f6573206e6f74206578697374000000000000000000000081525060200191505060405180910390fd5b61331f616948565b60d260008581526020019081526020016000206040518061012001604052908160008201548152602001600182015481526020016002820154815260200160038201548152602001600482015481526020016005820160009054906101000a900473ffffffffffffffffffffffffffffffffffffffff1673ffffffffffffffffffffffffffffffffffffffff1673ffffffffffffffffffffffffffffffffffffffff1681526020016006820160009054906101000a900473ffffffffffffffffffffffffffffffffffffffff1673ffffffffffffffffffffffffffffffffffffffff1673ffffffffffffffffffffffffffffffffffffffff1681526020016007820160009054906101000a900473ffffffffffffffffffffffffffffffffffffffff1673ffffffffffffffffffffffffffffffffffffffff1673ffffffffffffffffffffffffffffffffffffffff1681526020016007820160149054906101000a900460ff1615151515815250509050806060015142116134a45760009250506134ce565b80608001514210156134bf57806060015142039250506134ce565b80606001518160800151039250505b50919050565b6134dc6130b2565b6134e557600080fd5b6001609a600082825401925050819055506000609a54905060ce60009054906101000a900473ffffffffffffffffffffffffffffffffffffffff1673ffffffffffffffffffffffffffffffffffffffff16632f52e595846040518263ffffffff1660e01b8152600401808273ffffffffffffffffffffffffffffffffffffffff1673ffffffffffffffffffffffffffffffffffffffff16815260200191505060206040518083038186803b15801561359c57600080fd5b505afa1580156135b0573d6000803e3d6000fd5b505050506040513d60208110156135c657600080fd5b8101908080519060200190929190505050613649576040517f08c379a00000000000000000000000000000000000000000000000000000000081526004018080602001828103825260198152602001807f63546f6b656e206973206e6f742077686974656c69737465640000000000000081525060200191505060405180910390fd5b600082116136bf576040517f08c379a000000000000000000000000000000000000000000000000000000000815260040180806020018281038252600e8152602001807f616d6f756e74206973207a65726f00000000000000000000000000000000000081525060200191505060405180910390fd5b8160cf60008573ffffffffffffffffffffffffffffffffffffffff1673ffffffffffffffffffffffffffffffffffffffff168152602001908152602001600020541015613757576040517f08c379a0000000000000000000000000000000000000000000000000000000008152600401808060200182810382526024815260200180616e816024913960400191505060405180910390fd5b61375f616b4d565b6137a860cf60008673ffffffffffffffffffffffffffffffffffffffff1673ffffffffffffffffffffffffffffffffffffffff1681526020019081526020016000205484614580565b8260000160cf60008873ffffffffffffffffffffffffffffffffffffffff1673ffffffffffffffffffffffffffffffffffffffff168152602001908152602001600020600083919050558260038111156137fe57fe5b600381111561380957fe5b81525050506000600381111561381b57fe5b8160000151600381111561382b57fe5b1461383257fe5b828473ffffffffffffffffffffffffffffffffffffffff167f13e8af02ad3e36f8d82fc8b86dcd67b7ed11f718f0e52fb245d2038eb71856ba60405160405180910390a38373ffffffffffffffffffffffffffffffffffffffff1663a9059cbb33856040518363ffffffff1660e01b8152600401808373ffffffffffffffffffffffffffffffffffffffff1673ffffffffffffffffffffffffffffffffffffffff16815260200182815260200192505050602060405180830381600087803b1580156138fd57600080fd5b505af1158015613911573d6000803e3d6000fd5b505050506040513d602081101561392757600080fd5b81019080805190602001909291905050506139aa576040517f08c379a00000000000000000000000000000000000000000000000000000000081526004018080602001828103825260168152602001807f746f6b656e207472616e73666572206661696c7572650000000000000000000081525060200191505060405180910390fd5b50609a5481146139b957600080fd5b505050565b600060019054906101000a900460ff16806139dd57506139dc6162b8565b5b806139f457506000809054906101000a900460ff16155b613a49576040517f08c379a000000000000000000000000000000000000000000000000000000000815260040180806020018281038252602e815260200180617005602e913960400191505060405180910390fd5b60008060019054906101000a900460ff161590508015613a99576001600060016101000a81548160ff02191690831515021790555060016000806101000a81548160ff0219169083151502179055505b613aa282616583565b6000609960006101000a81548160ff0219169083151502179055508015613ade5760008060016101000a81548160ff0219169083151502179055505b5050565b6000609960009054906101000a900460ff1615613b67576040517f08c379a00000000000000000000000000000000000000000000000000000000081526004018080602001828103825260108152602001807f5061757361626c653a207061757365640000000000000000000000000000000081525060200191505060405180910390fd5b600073ffffffffffffffffffffffffffffffffffffffff168673ffffffffffffffffffffffffffffffffffffffff161415613c0a576040517f08c379a000000000000000000000000000000000000000000000000000000000815260040180806020018281038252601a8152602001807f73747265616d20746f20746865207a65726f206164647265737300000000000081525060200191505060405180910390fd5b3073ffffffffffffffffffffffffffffffffffffffff168673ffffffffffffffffffffffffffffffffffffffff161415613cac576040517f08c379a000000000000000000000000000000000000000000000000000000000815260040180806020018281038252601d8152602001807f73747265616d20746f2074686520636f6e747261637420697473656c6600000081525060200191505060405180910390fd5b3373ffffffffffffffffffffffffffffffffffffffff168673ffffffffffffffffffffffffffffffffffffffff161415613d4e576040517f08c379a00000000000000000000000000000000000000000000000000000000081526004018080602001828103825260148152602001807f73747265616d20746f207468652063616c6c657200000000000000000000000081525060200191505060405180910390fd5b60008511613dc4576040517f08c379a000000000000000000000000000000000000000000000000000000000815260040180806020018281038252600f8152602001807f6465706f736974206973207a65726f000000000000000000000000000000000081525060200191505060405180910390fd5b42831015613e1d576040517f08c379a0000000000000000000000000000000000000000000000000000000008152600401808060200182810382526021815260200180616eeb6021913960400191505060405180910390fd5b828211613e92576040517f08c379a000000000000000000000000000000000000000000000000000000000815260040180806020018281038252601f8152602001807f73746f702074696d65206265666f7265207468652073746172742074696d650081525060200191505060405180910390fd5b613e9a616b6b565b613ea48385614580565b826000018360200182815250826003811115613ebc57fe5b6003811115613ec757fe5b815250505060006003811115613ed957fe5b81600001516003811115613ee957fe5b14613ef057fe5b8060200151861015613f6a576040517f08c379a000000000000000000000000000000000000000000000000000000000815260040180806020018281038252601f8152602001807f6465706f73697420736d616c6c6572207468616e2074696d652064656c74610081525060200191505060405180910390fd5b600081602001518781613f7957fe5b0614613fd0576040517f08c379a0000000000000000000000000000000000000000000000000000000008152600401808060200182810382526022815260200180616f2e6022913960400191505060405180910390fd5b613fde86826020015161669a565b826000018360400182815250826003811115613ff657fe5b600381111561400157fe5b81525050506000600381111561401357fe5b8160000151600381111561402357fe5b1461402a57fe5b600060d1549050604051806101200160405280888152602001836040015181526020018881526020018681526020018581526020018973ffffffffffffffffffffffffffffffffffffffff1681526020013373ffffffffffffffffffffffffffffffffffffffff1681526020018773ffffffffffffffffffffffffffffffffffffffff1681526020016001151581525060d26000838152602001908152602001600020600082015181600001556020820151816001015560408201518160020155606082015181600301556080820151816004015560a08201518160050160006101000a81548173ffffffffffffffffffffffffffffffffffffffff021916908373ffffffffffffffffffffffffffffffffffffffff16021790555060c08201518160060160006101000a81548173ffffffffffffffffffffffffffffffffffffffff021916908373ffffffffffffffffffffffffffffffffffffffff16021790555060e08201518160070160006101000a81548173ffffffffffffffffffffffffffffffffffffffff021916908373ffffffffffffffffffffffffffffffffffffffff1602179055506101008201518160070160146101000a81548160ff02191690831515021790555090505061420560d15460016162cf565b8360000160d16000839190505582600381111561421e57fe5b600381111561422957fe5b81525050506000600381111561423b57fe5b8260000151600381111561424b57fe5b146142be576040517f08c379a00000000000000000000000000000000000000000000000000000000081526004018080602001828103825260208152602001807f6e6578742073747265616d2069642063616c63756c6174696f6e206572726f7281525060200191505060405180910390fd5b8573ffffffffffffffffffffffffffffffffffffffff166323b872dd33308a6040518463ffffffff1660e01b8152600401808473ffffffffffffffffffffffffffffffffffffffff1673ffffffffffffffffffffffffffffffffffffffff1681526020018373ffffffffffffffffffffffffffffffffffffffff1673ffffffffffffffffffffffffffffffffffffffff1681526020018281526020019350505050602060405180830381600087803b15801561437957600080fd5b505af115801561438d573d6000803e3d6000fd5b505050506040513d60208110156143a357600080fd5b8101908080519060200190929190505050614426576040517f08c379a00000000000000000000000000000000000000000000000000000000081526004018080602001828103825260168152602001807f746f6b656e207472616e73666572206661696c7572650000000000000000000081525060200191505060405180910390fd5b8773ffffffffffffffffffffffffffffffffffffffff163373ffffffffffffffffffffffffffffffffffffffff16827f7b01d409597969366dc268d7f957a990d1ca3d3449baf8fb45db67351aecfe788a8a8a8a604051808581526020018473ffffffffffffffffffffffffffffffffffffffff1673ffffffffffffffffffffffffffffffffffffffff16815260200183815260200182815260200194505050505060405180910390a4809250505095945050505050565b60ce60009054906101000a900473ffffffffffffffffffffffffffffffffffffffff1681565b60d08060000154905081565b6145186130b2565b61452157600080fd5b61452a816166ce565b50565b60008060008414156145485760008080905091509150614579565b600083850290508385828161455957fe5b041461457057600260008090509250925050614579565b60008192509250505b9250929050565b600080838311614598576000838503915091506145a4565b60036000809050915091505b9250929050565b600033905090565b60008073ffffffffffffffffffffffffffffffffffffffff168273ffffffffffffffffffffffffffffffffffffffff1614156145ee57600080fd5b8260000160008373ffffffffffffffffffffffffffffffffffffffff1673ffffffffffffffffffffffffffffffffffffffff16815260200190815260200160002060009054906101000a900460ff16905092915050565b61464d616948565b60d260008381526020019081526020016000206040518061012001604052908160008201548152602001600182015481526020016002820154815260200160038201548152602001600482015481526020016005820160009054906101000a900473ffffffffffffffffffffffffffffffffffffffff1673ffffffffffffffffffffffffffffffffffffffff1673ffffffffffffffffffffffffffffffffffffffff1681526020016006820160009054906101000a900473ffffffffffffffffffffffffffffffffffffffff1673ffffffffffffffffffffffffffffffffffffffff1673ffffffffffffffffffffffffffffffffffffffff1681526020016007820160009054906101000a900473ffffffffffffffffffffffffffffffffffffffff1673ffffffffffffffffffffffffffffffffffffffff1673ffffffffffffffffffffffffffffffffffffffff1681526020016007820160149054906101000a900460ff161515151581525050905060006147cd838360c00151610e28565b905060006147df848460a00151610e28565b905060d2600085815260200190815260200160002060008082016000905560018201600090556002820160009055600382016000905560048201600090556005820160006101000a81549073ffffffffffffffffffffffffffffffffffffffff02191690556006820160006101000a81549073ffffffffffffffffffffffffffffffffffffffff02191690556007820160006101000a81549073ffffffffffffffffffffffffffffffffffffffff02191690556007820160146101000a81549060ff0219169055505060008360e00151905060008211156149f3578073ffffffffffffffffffffffffffffffffffffffff1663a9059cbb8560a00151846040518363ffffffff1660e01b8152600401808373ffffffffffffffffffffffffffffffffffffffff1673ffffffffffffffffffffffffffffffffffffffff16815260200182815260200192505050602060405180830381600087803b15801561494557600080fd5b505af1158015614959573d6000803e3d6000fd5b505050506040513d602081101561496f57600080fd5b81019080805190602001909291905050506149f2576040517f08c379a00000000000000000000000000000000000000000000000000000000081526004018080602001828103825260208152602001807f726563697069656e7420746f6b656e207472616e73666572206661696c75726581525060200191505060405180910390fd5b5b6000831115614b35578073ffffffffffffffffffffffffffffffffffffffff1663a9059cbb8560c00151856040518363ffffffff1660e01b8152600401808373ffffffffffffffffffffffffffffffffffffffff1673ffffffffffffffffffffffffffffffffffffffff16815260200182815260200192505050602060405180830381600087803b158015614a8757600080fd5b505af1158015614a9b573d6000803e3d6000fd5b505050506040513d6020811015614ab157600080fd5b8101908080519060200190929190505050614b34576040517f08c379a000000000000000000000000000000000000000000000000000000000815260040180806020018281038252601d8152602001807f73656e64657220746f6b656e207472616e73666572206661696c75726500000081525060200191505060405180910390fd5b5b8360a0015173ffffffffffffffffffffffffffffffffffffffff168460c0015173ffffffffffffffffffffffffffffffffffffffff16867fca3e6079b726e7728802a0537949e2d1c7762304fa641fb06eb56daf2ba8c6b98686604051808381526020018281526020019250505060405180910390a45050505050565b614bba616948565b60d260008381526020019081526020016000206040518061012001604052908160008201548152602001600182015481526020016002820154815260200160038201548152602001600482015481526020016005820160009054906101000a900473ffffffffffffffffffffffffffffffffffffffff1673ffffffffffffffffffffffffffffffffffffffff1673ffffffffffffffffffffffffffffffffffffffff1681526020016006820160009054906101000a900473ffffffffffffffffffffffffffffffffffffffff1673ffffffffffffffffffffffffffffffffffffffff1673ffffffffffffffffffffffffffffffffffffffff1681526020016007820160009054906101000a900473ffffffffffffffffffffffffffffffffffffffff1673ffffffffffffffffffffffffffffffffffffffff1673ffffffffffffffffffffffffffffffffffffffff1681526020016007820160149054906101000a900460ff1615151515815250509050614d32616b97565b6000614d42848460c00151610e28565b90506000614d54858560a00151610e28565b90506000806000614d6588856125ef565b925092509250614d7585846162cf565b876000018860200182815250826003811115614d8d57fe5b6003811115614d9857fe5b815250505060006003811115614daa57fe5b86600001516003811115614dba57fe5b14614e10576040517f08c379a00000000000000000000000000000000000000000000000000000000081526004018080602001828103825260248152602001806170336024913960400191505060405180910390fd5b614e1a8484614580565b876000018860400182815250826003811115614e3257fe5b6003811115614e3d57fe5b815250505060006003811115614e4f57fe5b86600001516003811115614e5f57fe5b14614eb5576040517f08c379a000000000000000000000000000000000000000000000000000000000815260040180806020018281038252603b815260200180616fa3603b913960400191505060405180910390fd5b614ec3866040015182614580565b876000018860600182815250826003811115614edb57fe5b6003811115614ee657fe5b815250505060006003811115614ef857fe5b86600001516003811115614f0857fe5b14614f5e576040517f08c379a0000000000000000000000000000000000000000000000000000000008152600401808060200182810382526027815260200180616fde6027913960400191505060405180910390fd5b614fab60cf60008960e0015173ffffffffffffffffffffffffffffffffffffffff1673ffffffffffffffffffffffffffffffffffffffff16815260200190815260200160002054826162cf565b8760000160cf60008b60e0015173ffffffffffffffffffffffffffffffffffffffff1673ffffffffffffffffffffffffffffffffffffffff1681526020019081526020016000206000839190505582600381111561500557fe5b600381111561501057fe5b81525050506000600381111561502257fe5b8660000151600381111561503257fe5b14615088576040517f08c379a0000000000000000000000000000000000000000000000000000000008152600401808060200182810382526023815260200180616e076023913960400191505060405180910390fd5b60d2600089815260200190815260200160002060008082016000905560018201600090556002820160009055600382016000905560048201600090556005820160006101000a81549073ffffffffffffffffffffffffffffffffffffffff02191690556006820160006101000a81549073ffffffffffffffffffffffffffffffffffffffff02191690556007820160006101000a81549073ffffffffffffffffffffffffffffffffffffffff02191690556007820160146101000a81549060ff0219169055505060cd6000898152602001908152602001600020600080820160008082016000905550506001820160008082016000905550506002820160008082016000905550506003820160006101000a81549060ff0219169055505060008760e0015190506000876020015111156152f9578073ffffffffffffffffffffffffffffffffffffffff1663a9059cbb8960c0015189602001516040518363ffffffff1660e01b8152600401808373ffffffffffffffffffffffffffffffffffffffff1673ffffffffffffffffffffffffffffffffffffffff16815260200182815260200192505050602060405180830381600087803b15801561524b57600080fd5b505af115801561525f573d6000803e3d6000fd5b505050506040513d602081101561527557600080fd5b81019080805190602001909291905050506152f8576040517f08c379a000000000000000000000000000000000000000000000000000000000815260040180806020018281038252601d8152602001807f73656e64657220746f6b656e207472616e73666572206661696c75726500000081525060200191505060405180910390fd5b5b600087606001511115615443578073ffffffffffffffffffffffffffffffffffffffff1663a9059cbb8960a0015189606001516040518363ffffffff1660e01b8152600401808373ffffffffffffffffffffffffffffffffffffffff1673ffffffffffffffffffffffffffffffffffffffff16815260200182815260200192505050602060405180830381600087803b15801561539557600080fd5b505af11580156153a9573d6000803e3d6000fd5b505050506040513d60208110156153bf57600080fd5b8101908080519060200190929190505050615442576040517f08c379a00000000000000000000000000000000000000000000000000000000081526004018080602001828103825260208152602001807f726563697069656e7420746f6b656e207472616e73666572206661696c75726581525060200191505060405180910390fd5b5b8760a0015173ffffffffffffffffffffffffffffffffffffffff168860c0015173ffffffffffffffffffffffffffffffffffffffff168a7fca3e6079b726e7728802a0537949e2d1c7762304fa641fb06eb56daf2ba8c6b98a602001518b60600151604051808381526020018281526020019250505060405180910390a4887f5a8a03e48302e0bd2e011a3a2b54d1f849c55497f462f404bf52dce4290456b585858560405180848152602001838152602001828152602001935050505060405180910390a2505050505050505050565b61551c616948565b60d260008481526020019081526020016000206040518061012001604052908160008201548152602001600182015481526020016002820154815260200160038201548152602001600482015481526020016005820160009054906101000a900473ffffffffffffffffffffffffffffffffffffffff1673ffffffffffffffffffffffffffffffffffffffff1673ffffffffffffffffffffffffffffffffffffffff1681526020016006820160009054906101000a900473ffffffffffffffffffffffffffffffffffffffff1673ffffffffffffffffffffffffffffffffffffffff1673ffffffffffffffffffffffffffffffffffffffff1681526020016007820160009054906101000a900473ffffffffffffffffffffffffffffffffffffffff1673ffffffffffffffffffffffffffffffffffffffff1673ffffffffffffffffffffffffffffffffffffffff1681526020016007820160149054906101000a900460ff1615151515815250509050615694616bca565b6156a2826040015184614580565b8260000160d26000888152602001908152602001600020600201600083919050558260038111156156cf57fe5b60038111156156da57fe5b8152505050600060038111156156ec57fe5b816000015160038111156156fc57fe5b1461570357fe5b600060d260008681526020019081526020016000206002015414156157ea5760d2600085815260200190815260200160002060008082016000905560018201600090556002820160009055600382016000905560048201600090556005820160006101000a81549073ffffffffffffffffffffffffffffffffffffffff02191690556006820160006101000a81549073ffffffffffffffffffffffffffffffffffffffff02191690556007820160006101000a81549073ffffffffffffffffffffffffffffffffffffffff02191690556007820160146101000a81549060ff021916905550505b8160e0015173ffffffffffffffffffffffffffffffffffffffff1663a9059cbb8360a00151856040518363ffffffff1660e01b8152600401808373ffffffffffffffffffffffffffffffffffffffff1673ffffffffffffffffffffffffffffffffffffffff16815260200182815260200192505050602060405180830381600087803b15801561587957600080fd5b505af115801561588d573d6000803e3d6000fd5b505050506040513d60208110156158a357600080fd5b8101908080519060200190929190505050615926576040517f08c379a00000000000000000000000000000000000000000000000000000000081526004018080602001828103825260168152602001807f746f6b656e207472616e73666572206661696c7572650000000000000000000081525060200191505060405180910390fd5b8160a0015173ffffffffffffffffffffffffffffffffffffffff16847f36c3ab437e6a424ed25dc4bfdeb62706aa06558660fab2dab229d2555adaf89c856040518082815260200191505060405180910390a350505050565b615987616948565b60d260008481526020019081526020016000206040518061012001604052908160008201548152602001600182015481526020016002820154815260200160038201548152602001600482015481526020016005820160009054906101000a900473ffffffffffffffffffffffffffffffffffffffff1673ffffffffffffffffffffffffffffffffffffffff1673ffffffffffffffffffffffffffffffffffffffff1681526020016006820160009054906101000a900473ffffffffffffffffffffffffffffffffffffffff1673ffffffffffffffffffffffffffffffffffffffff1673ffffffffffffffffffffffffffffffffffffffff1681526020016007820160009054906101000a900473ffffffffffffffffffffffffffffffffffffffff1673ffffffffffffffffffffffffffffffffffffffff1673ffffffffffffffffffffffffffffffffffffffff1681526020016007820160149054906101000a900460ff1615151515815250509050615aff616be8565b6000806000615b0e87876125ef565b925092509250615b1e8684614580565b856000018660200182815250826003811115615b3657fe5b6003811115615b4157fe5b815250505060006003811115615b5357fe5b84600001516003811115615b6357fe5b14615bb9576040517f08c379a0000000000000000000000000000000000000000000000000000000008152600401808060200182810382526030815260200180616f506030913960400191505060405180910390fd5b615bc7846020015182614580565b856000018660400182815250826003811115615bdf57fe5b6003811115615bea57fe5b815250505060006003811115615bfc57fe5b84600001516003811115615c0c57fe5b14615c62576040517f08c379a0000000000000000000000000000000000000000000000000000000008152600401808060200182810382526027815260200180616e5a6027913960400191505060405180910390fd5b615c70856040015187614580565b8560000160d260008b815260200190815260200160002060020160008391905055826003811115615c9d57fe5b6003811115615ca857fe5b815250505060006003811115615cba57fe5b84600001516003811115615cca57fe5b14615d20576040517f08c379a0000000000000000000000000000000000000000000000000000000008152600401808060200182810382526025815260200180616ea56025913960400191505060405180910390fd5b600060d26000898152602001908152602001600020600201541415615e5e5760d2600088815260200190815260200160002060008082016000905560018201600090556002820160009055600382016000905560048201600090556005820160006101000a81549073ffffffffffffffffffffffffffffffffffffffff02191690556006820160006101000a81549073ffffffffffffffffffffffffffffffffffffffff02191690556007820160006101000a81549073ffffffffffffffffffffffffffffffffffffffff02191690556007820160146101000a81549060ff0219169055505060cd6000888152602001908152602001600020600080820160008082016000905550506001820160008082016000905550506002820160008082016000905550506003820160006101000a81549060ff021916905550505b615eab60cf60008760e0015173ffffffffffffffffffffffffffffffffffffffff1673ffffffffffffffffffffffffffffffffffffffff16815260200190815260200160002054826162cf565b8560000160cf60008960e0015173ffffffffffffffffffffffffffffffffffffffff1673ffffffffffffffffffffffffffffffffffffffff16815260200190815260200160002060008391905055826003811115615f0557fe5b6003811115615f1057fe5b815250505060006003811115615f2257fe5b84600001516003811115615f3257fe5b14615f88576040517f08c379a0000000000000000000000000000000000000000000000000000000008152600401808060200182810382526023815260200180616e076023913960400191505060405180910390fd5b60008560e00151905060008411156160d3578073ffffffffffffffffffffffffffffffffffffffff1663a9059cbb8760c00151866040518363ffffffff1660e01b8152600401808373ffffffffffffffffffffffffffffffffffffffff1673ffffffffffffffffffffffffffffffffffffffff16815260200182815260200192505050602060405180830381600087803b15801561602557600080fd5b505af1158015616039573d6000803e3d6000fd5b505050506040513d602081101561604f57600080fd5b81019080805190602001909291905050506160d2576040517f08c379a000000000000000000000000000000000000000000000000000000000815260040180806020018281038252601d8152602001807f73656e64657220746f6b656e207472616e73666572206661696c75726500000081525060200191505060405180910390fd5b5b8073ffffffffffffffffffffffffffffffffffffffff1663a9059cbb8760a0015187604001516040518363ffffffff1660e01b8152600401808373ffffffffffffffffffffffffffffffffffffffff1673ffffffffffffffffffffffffffffffffffffffff16815260200182815260200192505050602060405180830381600087803b15801561616257600080fd5b505af1158015616176573d6000803e3d6000fd5b505050506040513d602081101561618c57600080fd5b810190808051906020019092919050505061620f576040517f08c379a00000000000000000000000000000000000000000000000000000000081526004018080602001828103825260208152602001807f726563697069656e7420746f6b656e207472616e73666572206661696c75726581525060200191505060405180910390fd5b8560a0015173ffffffffffffffffffffffffffffffffffffffff16887f36c3ab437e6a424ed25dc4bfdeb62706aa06558660fab2dab229d2555adaf89c87604001516040518082815260200191505060405180910390a3877f5a8a03e48302e0bd2e011a3a2b54d1f849c55497f462f404bf52dce4290456b585858560405180848152602001838152602001828152602001935050505060405180910390a25050505050505050565b6000803090506000813b9050600081149250505090565b600080600083850190508481106162ed5760008192509250506162fa565b6002600080905092509250505b9250929050565b6163158160666167c890919063ffffffff16565b8073ffffffffffffffffffffffffffffffffffffffff167f6719d08c1888103bea251a4ed56406bd0c3e69723c8a1686e017e7bbe159b6f860405160405180910390a250565b6000616365616b15565b60008061637a86600001518660000151614580565b91509150816040518060200160405280838152508090509350935050509250929050565b60006163a8616b15565b6000806163b986600001518661452d565b91509150600060038111156163ca57fe5b8260038111156163d657fe5b146163fa578160405180602001604052806000815250809050935093505050616415565b60006040518060200160405280838152508090509350935050505b9250929050565b6000616426616b15565b61643884600001518460000151616874565b915091509250929050565b6000670de0b6b3a764000082600001518161645a57fe5b049050919050565b600061646c616b15565b6000806164818660000151866000015161452d565b915091506000600381111561649257fe5b82600381111561649e57fe5b146164c257816040518060200160405280600081525080905093509350505061657c565b6000806164e16002670de0b6b3a7640000816164da57fe5b04846162cf565b91509150600060038111156164f257fe5b8260038111156164fe57fe5b14616524578160405180602001604052806000815250809050955095505050505061657c565b60008061653983670de0b6b3a764000061669a565b915091506000600381111561654a57fe5b82600381111561655657fe5b1461655d57fe5b6000604051806020016040528083815250809050975097505050505050505b9250929050565b600060019054906101000a900460ff16806165a257506165a16162b8565b5b806165b957506000809054906101000a900460ff16155b61660e576040517f08c379a000000000000000000000000000000000000000000000000000000000815260040180806020018281038252602e815260200180617005602e913960400191505060405180910390fd5b60008060019054906101000a900460ff16159050801561665e576001600060016101000a81548160ff02191690831515021790555060016000806101000a81548160ff0219169083151502179055505b6166678261142d565b6166755761667482616301565b5b80156166965760008060016101000a81548160ff0219169083151502179055505b5050565b60008060008314156166b65760016000809050915091506166c7565b60008385816166c157fe5b04915091505b9250929050565b600073ffffffffffffffffffffffffffffffffffffffff168173ffffffffffffffffffffffffffffffffffffffff16141561670857600080fd5b8073ffffffffffffffffffffffffffffffffffffffff16603360009054906101000a900473ffffffffffffffffffffffffffffffffffffffff1673ffffffffffffffffffffffffffffffffffffffff167f8be0079c531659141344cd1fd0a4f28419497f9722a3daafe3b4186f6b6457e060405160405180910390a380603360006101000a81548173ffffffffffffffffffffffffffffffffffffffff021916908373ffffffffffffffffffffffffffffffffffffffff16021790555050565b600073ffffffffffffffffffffffffffffffffffffffff168173ffffffffffffffffffffffffffffffffffffffff16141561680257600080fd5b61680c82826145b3565b1561681657600080fd5b60018260000160008373ffffffffffffffffffffffffffffffffffffffff1673ffffffffffffffffffffffffffffffffffffffff16815260200190815260200160002060006101000a81548160ff0219169083151502179055505050565b600061687e616b15565b60008061689386670de0b6b3a764000061452d565b91509150600060038111156168a457fe5b8260038111156168b057fe5b146168d4578160405180602001604052806000815250809050935093505050616941565b6000806168e1838861669a565b91509150600060038111156168f257fe5b8260038111156168fe57fe5b146169245781604051806020016040528060008152508090509550955050505050616941565b600060405180602001604052808381525080905095509550505050505b9250929050565b6040518061012001604052806000815260200160008152602001600081526020016000815260200160008152602001600073ffffffffffffffffffffffffffffffffffffffff168152602001600073ffffffffffffffffffffffffffffffffffffffff168152602001600073ffffffffffffffffffffffffffffffffffffffff1681526020016000151581525090565b6040518060800160405280600060038111156169f057fe5b81526020016000815260200160008152602001600081525090565b6040518060a0016040528060006003811115616a2357fe5b8152602001600081526020016000815260200160008152602001600081525090565b6040518060800160405280616a58616c14565b8152602001616a65616c14565b8152602001616a72616c14565b81526020016000151581525090565b60405180610140016040528060006003811115616a9a57fe5b8152602001616aa7616c14565b8152602001616ab4616c14565b8152602001616ac1616c14565b8152602001616ace616c14565b8152602001616adb616c14565b8152602001616ae8616c14565b8152602001616af5616c14565b8152602001616b02616c14565b8152602001616b0f616c14565b81525090565b6040518060200160405280600081525090565b604051806040016040528060006003811115616b4057fe5b8152602001600081525090565b604051806020016040528060006003811115616b6557fe5b81525090565b604051806060016040528060006003811115616b8357fe5b815260200160008152602001600081525090565b604051806080016040528060006003811115616baf57fe5b81526020016000815260200160008152602001600081525090565b604051806020016040528060006003811115616be257fe5b81525090565b604051806060016040528060006003811115616c0057fe5b815260200160008152602001600081525090565b6040518060200160405280600081525090565b600060019054906101000a900460ff1680616c465750616c456162b8565b5b80616c5d57506000809054906101000a900460ff16155b616cb2576040517f08c379a000000000000000000000000000000000000000000000000000000000815260040180806020018281038252602e815260200180617005602e913960400191505060405180910390fd5b60008060019054906101000a900460ff161590508015616d02576001600060016101000a81548160ff02191690831515021790555060016000806101000a81548160ff0219169083151502179055505b81603360006101000a81548173ffffffffffffffffffffffffffffffffffffffff021916908373ffffffffffffffffffffffffffffffffffffffff160217905550603360009054906101000a900473ffffffffffffffffffffffffffffffffffffffff1673ffffffffffffffffffffffffffffffffffffffff16600073ffffffffffffffffffffffffffffffffffffffff167f8be0079c531659141344cd1fd0a4f28419497f9722a3daafe3b4186f6b6457e060405160405180910390a38015616de15760008060016101000a81548160ff0219169083151502179055505b505056fe636f6d706f756e64696e672073747265616d20646f6573206e6f742065786973746561726e696e6773206164646974696f6e2063616c63756c6174696f6e206572726f72506175736572526f6c653a2063616c6c657220646f6573206e6f742068617665207468652050617573657220726f6c656e6574207769746864726177616c20616d6f756e742063616c63756c6174696f6e206572726f72616d6f756e7420657863656564732074686520617661696c61626c652062616c616e636562616c616e6365207375627472616374696f6e2063616c63756c6174696f6e206572726f7273656e64657220696e7465726573742063616c63756c6174696f6e206572726f7273746172742074696d65206265666f726520626c6f636b2e74696d657374616d707361626c69657220696e7465726573742063616c63756c6174696f6e206572726f726465706f736974206e6f74206d756c7469706c65206f662074696d652064656c7461616d6f756e7420776974686f75742073656e64657220696e7465726573742063616c63756c6174696f6e206572726f72726563697069656e7420696e74657265737420636f6e76657273696f6e206572726f72726563697069656e742062616c616e636520776974686f75742073656e64657220696e7465726573742063616c63756c6174696f6e206572726f726e657420726563697069656e742062616c616e63652063616c63756c6174696f6e206572726f72436f6e747261637420696e7374616e63652068617320616c7265616479206265656e20696e697469616c697a65646e65742073656e6465722062616c616e63652063616c63756c6174696f6e206572726f727361626c69657220696e74657265737420636f6e76657273696f6e206572726f72726563697069656e742062616c616e63652063616c63756c6174696f6e206572726f7263616c6c6572206973206e6f74207468652073656e646572206f722074686520726563697069656e74206f66207468652073747265616da265627a7a723158208edd305f1ee9c76f9505a7243028d899996ac7e2064e30d4b77dc119765ce17364736f6c634300050b0032436f6e747261637420696e7374616e63652068617320616c7265616479206265656e20696e697469616c697a656463546f6b656e4d616e6167657220636f6e747261637420697320746865207a65726f2061646472657373",
  "linkReferences": {},
  "deployedLinkReferences": {}
}