{
  "_format": "hh-sol-artifact-1",
  "contractName": "OwnableWithoutRenounce",
  "sourceName": "contracts/shared-contracts/lifecycle/OwnableWithoutRenounce.sol",
  "abi": [
    {
      "constant": true,
      "inputs": [],
      "name": "owner",
      "outputs": [
        {
          "internalType": "address",
          "name": "",
          "type": "address"
        }
      ],
      "payable": false,
      "stateMutability": "view",
      "type": "function"
    },
    {
      "constant": true,
      "inputs": [],
      "name": "isOwner",
      "outputs": [
        {
          "internalType": "bool",
          "name": "",
          "type": "bool"
        }
      ],
      "payable": false,
      "stateMutability": "view",
      "type": "function"
    },
    {
      "constant": false,
      "inputs": [
        {
          "internalType": "address",
          "name": "sender",
          "type": "address"
        }
      ],
      "name": "initialize",
      "outputs": [],
      "payable": false,
      "stateMutability": "nonpayable",
      "type": "function"
    },
    {
      "constant": false,
      "inputs": [
        {
          "internalType": "address",
          "name": "newOwner",
          "type": "address"
        }
      ],
      "name": "transferOwnership",
      "outputs": [],
      "payable": false,
      "stateMutability": "nonpayable",
      "type": "function"
    },
    {
      "anonymous": false,
      "inputs": [
        {
          "indexed": true,
          "internalType": "address",
          "name": "previousOwner",
          "type": "address"
        },
        {
          "indexed": true,
          "internalType": "address",
          "name": "newOwner",
          "type": "address"
        }
      ],
      "name": "OwnershipTransferred",
      "type": "event"
    }
  ],
  "bytecode": "0x6080604052610525806100136000396000f3fe608060405234801561001057600080fd5b506004361061004c5760003560e01c80638da5cb5b146100515780638f32d59b1461009b578063c4d66de8146100bd578063f2fde38b14610101575b600080fd5b610059610145565b604051808273ffffffffffffffffffffffffffffffffffffffff1673ffffffffffffffffffffffffffffffffffffffff16815260200191505060405180910390f35b6100a361016f565b604051808215151515815260200191505060405180910390f35b6100ff600480360360208110156100d357600080fd5b81019080803573ffffffffffffffffffffffffffffffffffffffff1690602001909291905050506101ce565b005b6101436004803603602081101561011757600080fd5b81019080803573ffffffffffffffffffffffffffffffffffffffff16906020019092919050505061038c565b005b6000603360009054906101000a900473ffffffffffffffffffffffffffffffffffffffff16905090565b6000603360009054906101000a900473ffffffffffffffffffffffffffffffffffffffff1673ffffffffffffffffffffffffffffffffffffffff166101b26103a9565b73ffffffffffffffffffffffffffffffffffffffff1614905090565b600060019054906101000a900460ff16806101ed57506101ec6103b1565b5b8061020457506000809054906101000a900460ff16155b610259576040517f08c379a000000000000000000000000000000000000000000000000000000000815260040180806020018281038252602e8152602001806104c3602e913960400191505060405180910390fd5b60008060019054906101000a900460ff1615905080156102a9576001600060016101000a81548160ff02191690831515021790555060016000806101000a81548160ff0219169083151502179055505b81603360006101000a81548173ffffffffffffffffffffffffffffffffffffffff021916908373ffffffffffffffffffffffffffffffffffffffff160217905550603360009054906101000a900473ffffffffffffffffffffffffffffffffffffffff1673ffffffffffffffffffffffffffffffffffffffff16600073ffffffffffffffffffffffffffffffffffffffff167f8be0079c531659141344cd1fd0a4f28419497f9722a3daafe3b4186f6b6457e060405160405180910390a380156103885760008060016101000a81548160ff0219169083151502179055505b5050565b61039461016f565b61039d57600080fd5b6103a6816103c8565b50565b600033905090565b6000803090506000813b9050600081149250505090565b600073ffffffffffffffffffffffffffffffffffffffff168173ffffffffffffffffffffffffffffffffffffffff16141561040257600080fd5b8073ffffffffffffffffffffffffffffffffffffffff16603360009054906101000a900473ffffffffffffffffffffffffffffffffffffffff1673ffffffffffffffffffffffffffffffffffffffff167f8be0079c531659141344cd1fd0a4f28419497f9722a3daafe3b4186f6b6457e060405160405180910390a380603360006101000a81548173ffffffffffffffffffffffffffffffffffffffff021916908373ffffffffffffffffffffffffffffffffffffffff1602179055505056fe436f6e747261637420696e7374616e63652068617320616c7265616479206265656e20696e697469616c697a6564a265627a7a7231582062a7a89d49d94fb49c58ceedf89645b763728a8c9ea0159f3887d42592fc3dd864736f6c634300050b0032",
  "linkReferences": {},
  "deployedLinkReferences": {}
}