{
  "_format": "hh-sol-artifact-1",
  "contractName": "PausableWithoutRenounce",
  "sourceName": "contracts/shared-contracts/lifecycle/PausableWithoutRenounce.sol",
  "abi": [
    {
      "constant": false,
      "inputs": [],
      "name": "unpause",
      "outputs": [],
      "payable": false,
      "stateMutability": "nonpayable",
      "type": "function"
    },
    {
      "constant": true,
      "inputs": [
        {
          "internalType": "address",
          "name": "account",
          "type": "address"
        }
      ],
      "name": "isPauser",
      "outputs": [
        {
          "internalType": "bool",
          "name": "",
          "type": "bool"
        }
      ],
      "payable": false,
      "stateMutability": "view",
      "type": "function"
    },
    {
      "constant": true,
      "inputs": [],
      "name": "paused",
      "outputs": [
        {
          "internalType": "bool",
          "name": "",
          "type": "bool"
        }
      ],
      "payable": false,
      "stateMutability": "view",
      "type": "function"
    },
    {
      "constant": false,
      "inputs": [
        {
          "internalType": "address",
          "name": "account",
          "type": "address"
        }
      ],
      "name": "addPauser",
      "outputs": [],
      "payable": false,
      "stateMutability": "nonpayable",
      "type": "function"
    },
    {
      "constant": false,
      "inputs": [],
      "name": "pause",
      "outputs": [],
      "payable": false,
      "stateMutability": "nonpayable",
      "type": "function"
    },
    {
      "constant": false,
      "inputs": [
        {
          "internalType": "address",
          "name": "sender",
          "type": "address"
        }
      ],
      "name": "initialize",
      "outputs": [],
      "payable": false,
      "stateMutability": "nonpayable",
      "type": "function"
    },
    {
      "anonymous": false,
      "inputs": [
        {
          "indexed": false,
          "internalType": "address",
          "name": "account",
          "type": "address"
        }
      ],
      "name": "Paused",
      "type": "event"
    },
    {
      "anonymous": false,
      "inputs": [
        {
          "indexed": false,
          "internalType": "address",
          "name": "account",
          "type": "address"
        }
      ],
      "name": "Unpaused",
      "type": "event"
    },
    {
      "anonymous": false,
      "inputs": [
        {
          "indexed": true,
          "internalType": "address",
          "name": "account",
          "type": "address"
        }
      ],
      "name": "PauserAdded",
      "type": "event"
    },
    {
      "anonymous": false,
      "inputs": [
        {
          "indexed": true,
          "internalType": "address",
          "name": "account",
          "type": "address"
        }
      ],
      "name": "PauserRemoved",
      "type": "event"
    }
  ],
  "bytecode": "0x6080604052610988806100136000396000f3fe608060405234801561001057600080fd5b50600436106100625760003560e01c80633f4ba83a1461006757806346fbf68e146100715780635c975abb146100cd57806382dc1ec4146100ef5780638456cb5914610133578063c4d66de81461013d575b600080fd5b61006f610181565b005b6100b36004803603602081101561008757600080fd5b81019080803573ffffffffffffffffffffffffffffffffffffffff1690602001909291905050506102ef565b604051808215151515815260200191505060405180910390f35b6100d561030c565b604051808215151515815260200191505060405180910390f35b6101316004803603602081101561010557600080fd5b81019080803573ffffffffffffffffffffffffffffffffffffffff169060200190929190505050610323565b005b61013b610394565b005b61017f6004803603602081101561015357600080fd5b81019080803573ffffffffffffffffffffffffffffffffffffffff169060200190929190505050610503565b005b61019161018c610627565b6102ef565b6101e6576040517f08c379a00000000000000000000000000000000000000000000000000000000081526004018080602001828103825260308152602001806108f66030913960400191505060405180910390fd5b606660009054906101000a900460ff16610268576040517f08c379a00000000000000000000000000000000000000000000000000000000081526004018080602001828103825260148152602001807f5061757361626c653a206e6f742070617573656400000000000000000000000081525060200191505060405180910390fd5b6000606660006101000a81548160ff0219169083151502179055507f5db9ee0a495bf2e6ff9c91a7834c1ba4fdd244a5e8aa4e537bd38aeae4b073aa6102ac610627565b604051808273ffffffffffffffffffffffffffffffffffffffff1673ffffffffffffffffffffffffffffffffffffffff16815260200191505060405180910390a1565b600061030582603361062f90919063ffffffff16565b9050919050565b6000606660009054906101000a900460ff16905090565b61033361032e610627565b6102ef565b610388576040517f08c379a00000000000000000000000000000000000000000000000000000000081526004018080602001828103825260308152602001806108f66030913960400191505060405180910390fd5b610391816106c1565b50565b6103a461039f610627565b6102ef565b6103f9576040517f08c379a00000000000000000000000000000000000000000000000000000000081526004018080602001828103825260308152602001806108f66030913960400191505060405180910390fd5b606660009054906101000a900460ff161561047c576040517f08c379a00000000000000000000000000000000000000000000000000000000081526004018080602001828103825260108152602001807f5061757361626c653a207061757365640000000000000000000000000000000081525060200191505060405180910390fd5b6001606660006101000a81548160ff0219169083151502179055507f62e78cea01bee320cd4e420270b5ea74000d11b0c9f74754ebdbfc544b05a2586104c0610627565b604051808273ffffffffffffffffffffffffffffffffffffffff1673ffffffffffffffffffffffffffffffffffffffff16815260200191505060405180910390a1565b600060019054906101000a900460ff1680610522575061052161071b565b5b8061053957506000809054906101000a900460ff16155b61058e576040517f08c379a000000000000000000000000000000000000000000000000000000000815260040180806020018281038252602e815260200180610926602e913960400191505060405180910390fd5b60008060019054906101000a900460ff1615905080156105de576001600060016101000a81548160ff02191690831515021790555060016000806101000a81548160ff0219169083151502179055505b6105e782610732565b6000606660006101000a81548160ff02191690831515021790555080156106235760008060016101000a81548160ff0219169083151502179055505b5050565b600033905090565b60008073ffffffffffffffffffffffffffffffffffffffff168273ffffffffffffffffffffffffffffffffffffffff16141561066a57600080fd5b8260000160008373ffffffffffffffffffffffffffffffffffffffff1673ffffffffffffffffffffffffffffffffffffffff16815260200190815260200160002060009054906101000a900460ff16905092915050565b6106d581603361084990919063ffffffff16565b8073ffffffffffffffffffffffffffffffffffffffff167f6719d08c1888103bea251a4ed56406bd0c3e69723c8a1686e017e7bbe159b6f860405160405180910390a250565b6000803090506000813b9050600081149250505090565b600060019054906101000a900460ff1680610751575061075061071b565b5b8061076857506000809054906101000a900460ff16155b6107bd576040517f08c379a000000000000000000000000000000000000000000000000000000000815260040180806020018281038252602e815260200180610926602e913960400191505060405180910390fd5b60008060019054906101000a900460ff16159050801561080d576001600060016101000a81548160ff02191690831515021790555060016000806101000a81548160ff0219169083151502179055505b610816826102ef565b61082457610823826106c1565b5b80156108455760008060016101000a81548160ff0219169083151502179055505b5050565b600073ffffffffffffffffffffffffffffffffffffffff168173ffffffffffffffffffffffffffffffffffffffff16141561088357600080fd5b61088d828261062f565b1561089757600080fd5b60018260000160008373ffffffffffffffffffffffffffffffffffffffff1673ffffffffffffffffffffffffffffffffffffffff16815260200190815260200160002060006101000a81548160ff021916908315150217905550505056fe506175736572526f6c653a2063616c6c657220646f6573206e6f742068617665207468652050617573657220726f6c65436f6e747261637420696e7374616e63652068617320616c7265616479206265656e20696e697469616c697a6564a265627a7a723158204944bf06381fad2b658496f24b8fd0fa1f76554e30cead1df799264ad75515f764736f6c634300050b0032",
  "linkReferences": {},
  "deployedLinkReferences": {}
}